:020000040800F2
:1000000000400020A10C0008010D0008010D0008AF
:10001000010D0008010D0008010D0008000000009E
:10002000000000000000000000000000010D0008BA
:10003000010D000800000000010D00082D1100084E
:10004000010D0008010D0008010D0008010D000858
:10005000010D0008010D0008010D0008010D000848
:10006000010D0008E5120008BD120008010D00088E
:10007000010D0008010D000859180008010D0008C5
:10008000010D0008010D0008A5160008010D00086B
:10009000010D0008010D0008010D00080D130008F6
:1000A000010D0008010D0008010D0008010D0008F8
:1000B000010D0008010D0008010D0008010D0008E8
:1000C000010D0008010D0008010D00089D1B00082E
:1000D000010D0008411C0008AD1C0008010D0008BE
:1000E000C9130008010D0008010D00080000000000
:1000F0000000000000000000000000000000000000
:1001000000000000000000005FF808F110B5054C89
:10011000237833B9044B13B10448AFF300800123B3
:10012000237010BDE00800200000000008EE000869
:1001300008B5064B1BB106480649AFF300800648D8
:10014000036813B1054B03B1984708BD00000000D8
:1001500008EE0008E4080020DC0800200000000091
:1001600080B483B000AF0346FB71FB79002B03D151
:10017000054B10225A6102E0034B10221A610C3722
:10018000BD465DF8047B70470008014080B582B031
:1001900000AF0346FB71FB79184601F013FD0346DF
:1001A000DBB218460837BD4680BD00BF80B582B0BF
:1001B00000AF02460B46FA807B710020FFF7D0FFAC
:1001C000FB881B0A9BB2DBB21846FFF7DFFFFB88F8
:1001D000DBB21846FFF7DAFF8020FFF7D7FF0120D8
:1001E000FFF7D4FF7B791846FFF7D0FF0120FFF718
:1001F000B7FF012318460837BD4680BD80B584B0DF
:1002000000AF0346FB800020FFF7AAFFFB881B0A14
:100210009BB2DBB21846FFF7B9FFFB88DBB218468A
:10022000FFF7B4FF0020FFF7B1FF0120FFF7AEFF9B
:100230000020FFF7ABFF0346FB730120FFF790FFA1
:10024000FB7B18461037BD4680BD00BF80B582B02D
:1002500000AF0346FB71FB7900201946FFF7A6FFAC
:100260000837BD4680BD00BF80B500AF1520FFF741
:10027000C5FF0346184680BD80B500AF1920FFF7C3
:10028000BDFF0346184680BD80B582B000AF172081
:10029000FFF7B4FF03467B711820FFF7AFFF03465B
:1002A0003B717B791B029AB23B7913449BB218468F
:1002B0000837BD4680BD00BF80B582B000AF0346A1
:1002C000FB80FB881B0A9BB2DBB217201946FFF7A5
:1002D0006DFFFB88DBB218201946FFF767FF083770
:1002E000BD4680BD80B582B000AF0346FB71FB798F
:1002F00019201946FFF75AFF0837BD4680BD00BFD9
:1003000080B500AF1620FFF779FF0346184680BD81
:1003100080B584B000AF7860214801F03FFB002336
:10032000FB730AE0FB7B7A6813441B781D4819466F
:1003300001F0EEFDFB7B0133FB73FB7B052BF1D959
:10034000194801F02BFB7B681B7809201946FFF741
:100350002DFF7B6801331B780A201946FFF726FF23
:100360007B6802331B780B201946FFF71FFF7B6861
:1003700003331B780C201946FFF718FF7B68043302
:100380001B780D201946FFF711FF7B6805331B789A
:100390000E201946FFF70AFF1037BD4680BD00BF8B
:1003A00078D0000884D0000888D0000880B584B0D8
:1003B00000AF78601A4801F0F1FA0023FB730AE0FD
:1003C000FB7B7A6813441B781648194601F06EFDD2
:1003D000FB7B0133FB73FB7B032BF1D9124801F04C
:1003E000DDFA7B681B780F201946FFF7DFFE7B687C
:1003F00001331B7810201946FFF7D8FE7B680233C3
:100400001B7811201946FFF7D1FE7B6803331B7858
:1004100012201946FFF7CAFE1037BD4680BD00BF47
:100420008CD0000884D0000888D0000880B584B043
:1004300000AF78601A4801F0B1FA0023FB730AE0BC
:10044000FB7B7A6813441B781648194601F02EFD91
:10045000FB7B0133FB73FB7B032BF1D9124801F0CB
:100460009DFA7B681B7805201946FFF79FFE7B6885
:1004700001331B7806201946FFF798FE7B6802338C
:100480001B7807201946FFF791FE7B6803331B7822
:1004900008201946FFF78AFE1037BD4680BD00BF11
:1004A00098D0000884D0000888D0000880B584B0B7
:1004B00000AF78601A4801F071FA0023FB730AE07C
:1004C000FB7B7A6813441B781648194601F0EEFC52
:1004D000FB7B0133FB73FB7B032BF1D9124801F04B
:1004E0005DFA7B681B7801201946FFF75FFE7B6889
:1004F00001331B7802201946FFF758FE7B68023350
:100500001B7803201946FFF751FE7B6803331B78E5
:1005100004201946FFF74AFE1037BD4680BD00BFD4
:10052000A4D0000884D0000888D0000890B583B01B
:1005300000AF78600120FFF761FE03461A467B6832
:100540001A707B685C1C0220FFF758FE034623707C
:100550007B689C1C0320FFF751FE034623707B68D9
:10056000DC1C0420FFF74AFE034623700C37BD460F
:1005700090BD00BF90B583B000AF78600520FFF755
:100580003DFE03461A467B681A707B685C1C062099
:10059000FFF734FE034623707B689C1C0720FFF79F
:1005A0002DFE034623707B68DC1C0820FFF726FE27
:1005B000034623700C37BD4690BD00BF90B583B095
:1005C00000AF78600F20FFF719FE03461A467B68DC
:1005D0001A707B685C1C1020FFF710FE0346237026
:1005E0007B689C1C1120FFF709FE034623707B6883
:1005F000DC1C1220FFF702FE034623700C37BD46B9
:1006000090BD00BF90B583B000AF78600920FFF7C0
:10061000F5FD03461A467B681A707B685C1C0A204D
:10062000FFF7ECFD034623707B689C1C0B20FFF753
:10063000E5FD034623707B68DC1C0C20FFF7DEFD24
:10064000034623707B681C1D0D20FFF7D7FD034672
:1006500023707B685C1D0E20FFF7D0FD03462370DE
:100660000C37BD4690BD00BF80B582B000AF44F2EC
:100670000400FFF7C3FD03467B7144F20500FFF75A
:10068000BDFD03463B717B791B029AB23B79134453
:100690009BB218460837BD4680BD00BF80B582B00A
:1006A00000AF1F20FFF7AAFD03463B713B791846B8
:1006B0000837BD4680BD00BF80B582B000AF03469D
:1006C000FB80FB88DBB244F21E001946FFF76EFD8B
:1006D0000837BD4680BD00BF80B582B000AF03467D
:1006E000FB80FB88DBB244F21F001946FFF75EFD7A
:1006F0000837BD4680BD00BF80B588B000AF7860C8
:100700008020FFF7A3FD642000F0FCFC0023FB77B2
:100710000AE0FB7FFA7F18498A5C79680B4483F80A
:100720000A21FB7F0133FB77FB7F052BF1D90023E7
:10073000FB770AE0FB7FFA7F10498A5C79680B44FB
:1007400083F81021FB7F0133FB77FB7F032BF1D96B
:100750000023FB770AE0FB7FFA7F09498A5C79680E
:100760000B4483F80221FB7F0133FB77FB7F032BD4
:10077000F1D90023FB7710E00000002008000020E2
:100780000C000020FB7FFA7F9F498A5C79680B444C
:1007900083F80621FB7F0133FB77FB7F032BF1D925
:1007A0007A68B2F81C3141F2707161F30F03A2F85C
:1007B0001C317A6892F81E31032161F3070382F835
:1007C0001E317A6892F8E831082161F3070382F854
:1007D000E8317A6892F8F031082161F3070382F872
:1007E000F0317B6803F585731846FFF791FD7B6850
:1007F00003F588731846FFF7D9FD7B6803F583730B
:100800001846FFF713FE7B6803F581731846FFF760
:100810004DFE7B68B3F81C311846FFF74DFD7B6831
:1008200093F81E311846FFF75DFD7B6893F8E831B9
:100830001846FFF741FF7B6893F8F0311846FFF741
:100840004BFF724801F0AAF8714801F0A7F871480F
:1008500001F0A4F8704801F0A1F807F10803184668
:10086000FFF7ACFE6D4801F099F83B7A6C481946E9
:1008700001F01CFB6B4801F091F87B7A684819463F
:1008800001F014FB674801F089F8BB7A6448194607
:1008900001F00CFB634801F081F8FB7A60481946CF
:1008A00001F004FB604801F079F807F108031846ED
:1008B000FFF760FE5D4801F071F83B7A5848194631
:1008C00001F0F4FA574801F069F87B7A5448194668
:1008D00001F0ECFA534801F061F8BB7A5048194630
:1008E00001F0E4FA4F4801F059F8FB7A4C481946F8
:1008F00001F0DCFA4C4801F051F807F10803184602
:10090000FFF714FE4A4801F049F83B7A444819467B
:1009100001F0CCFA434801F041F87B7A404819468F
:1009200001F0C4FA3F4801F039F8BB7A3C48194657
:1009300001F0BCFA3B4801F031F8FB7A384819461F
:1009400001F0B4FA384801F029F807F10803184615
:10095000FFF758FE374801F021F83B7A3048194636
:1009600001F0D6FA2F4801F019F87B7A2C48194685
:1009700001F0CEFA2B4801F011F8BB7A284819464D
:1009800001F0C6FA274801F009F8FB7A2448194615
:1009900001F0BEFA234801F001F83B7B20481946DC
:1009A00001F0B6FA1F4800F0F9FF7B7B1C4819469E
:1009B00001F0AEFA1C4800F0F1FFFFF755FE0346C8
:1009C0009AB24FF00003C7E904231B4800F0E6FF8A
:1009D0003A697B691343002B0CBF00230123DBB270
:1009E0000F48194601F078FAFFF758FE0346DAB2CD
:1009F0004FF00003C7E904231048D7E9042301F0AE
:100A00006BFA2037BD4680BD10000020B0D0000832
:100A1000E0D0000808D1000830D100085CD10008FF
:100A200064D1000868D1000888D000086CD10008A3
:100A300074D100087CD1000884D100088CD1000852
:100A400080B584B000AF334800F0A8FFFFF70CFC7E
:100A50000346DAB24FF00003C7E90223D7E90201E7
:100A60004FF0FF024FF0000302EA000203EA010325
:100A7000294801F031FAFFF743FC0346DAB24FF0A0
:100A80000003C7E90223D7E902014FF0FF024FF04C
:100A9000000302EA000203EA0103204801F01CFA05
:100AA000FFF7F2FB03469AB24FF00003C7E90223B7
:100AB000D7E902014FF0FF024FF0000302EA000203
:100AC00003EA0103164801F0D7F9FFF7D5FB034607
:100AD000DAB24FF00003C7E90223D7E902014FF071
:100AE000FF024FF0000302EA000203EA01030D488F
:100AF00001F0F2F9FFF7D2FD0346DAB24FF000033E
:100B0000C7E902230848D7E9022301F0E5F91037C5
:100B1000BD4680BD9CD10008A8D10008B0D1000816
:100B2000B8D10008C0D100088CD1000880B500AF52
:100B3000154B154A126842F001021A60124A124B14
:100B40005968124B0B4053600F4A0F4B1B6823F040
:100B5000847323F4803313600B4B0B4A126822F426
:100B600080221A60084B084A526822F4FE025A603A
:100B7000054B4FF41F029A6000F00CF8044B4FF045
:100B800000629A6080BD00BF001002400000FFF8C4
:100B900000ED00E080B500AF00F002F880BD00BFBE
:100BA00080B483B000AF00237B6000233B603A4BEE
:100BB000394A126842F480321A60374B1B6803F4DA
:100BC00000333B607B6801337B603B68002B03D1C3
:100BD0007B68B3F5A06FF0D12F4B1B6803F4003393
:100BE000002B02D001233B6001E000233B603B6807
:100BF000012B4BD1294B294A126842F010021A608E
:100C0000264B264A126822F003021A60234B234A1D
:100C1000126842F002021A601F4B1F4A52685A6063
:100C20001D4B1D4A52685A601B4B1B4A526842F4C6
:100C300080625A60184B184A526822F47C125A603B
:100C4000154B154A526842F4E8125A60124B124A88
:100C5000126842F080721A6000BF0F4B1B6803F0ED
:100C60000073002BF9D00C4B0B4A526822F00302A0
:100C70005A60094B084A526842F002025A6000BFAB
:100C8000054B5B6803F00C03082BF9D10C37BD460C
:100C90005DF8047B704700BF001002400020024056
:100CA00080B582B000AF114B7B60114B3B6007E019
:100CB0003B681A1D3A607A68111D796012681A60E3
:100CC0003A680C4B9A42F3D30B480C494FF00002A0
:100CD0008842B8BF40F8042BFFF6FAAFFFF726FFB3
:100CE00004F048FD0837BD4680BD00BF10EE000887
:100CF00000000020E0080020E0080020002C002078
:100D000080B400AFFEE700BF80B489B000AF786068
:100D100039600023FB6100233B610023BB6100239A
:100D2000FB6000237B610023BB603B68DB7803F042
:100D30000F03FB613B68DB7803F01003002B04D04A
:100D40003B689B78FA691343FB613B681B88DBB205
:100D5000002B44D07B681B687B610023BB6138E0BB
:100D6000BB69012202FA03F3FB603B681B881A4649
:100D7000FB6813403B613A69FB689A4226D1BB6924
:100D80009B00FB60FB680F2202FA03F3BB60BB68A9
:100D9000DB437A6913407B61FB68FA6902FA03F36B
:100DA0007A6913437B613B68DB78282B05D1BB69EB
:100DB00001229A407B685A6108E03B68DB78482B47
:100DC00004D1BB6901229A407B681A61BB69013377
:100DD000BB61BB69072BC3D97B687A691A603B6822
:100DE0001B88FF2B46D97B685B687B610023BB6156
:100DF0003AE0BB690833012202FA03F3FB603B6867
:100E00001B881A46FB6813403B613A69FB689A42AB
:100E100027D1BB699B00FB60FB680F2202FA03F33A
:100E2000BB60BB68DB437A6913407B61FB68FA698E
:100E300002FA03F37A6913437B613B68DB78282B62
:100E400005D1BB69083301229A407B685A613B682F
:100E5000DB78482B05D1BB69083301229A407B68B7
:100E60001A61BB690133BB61BB69072BC1D97B68C0
:100E70007A695A602437BD465DF8047B704700BF2D
:100E800080B485B000AF78600B467B800023FB7395
:100E90007B689A687B881340002B02D00123FB7388
:100EA00001E00023FB73FB7B18461437BD465DF859
:100EB000047B704780B487B000AF78600B46FB704E
:100EC00000233B610023FB6000237B610023BB60A8
:100ED0007B68002B03DA2E4BDB697B6102E02C4B35
:100EE0005B687B617B6803F470231B0CBB607B68D1
:100EF0009BB23B617B6803F44013B3F5401F0AD1FA
:100F00007B6923F070637B61214B214A526822F098
:100F100070625A6021E07B6803F48013002B0ED0CE
:100F2000BB68032202FA03F3FB60FB68DB437A69C8
:100F300013407B617B6943F070637B610DE07B68EC
:100F40005B0D1B013A6902FA03F3DB437A69134034
:100F50007B617B6943F070637B61FB78002B08D079
:100F60007B685B0D1B013A6902FA03F37A6913434C
:100F70007B617B68002B03DA054B7A69DA6102E05A
:100F8000034B7A695A601C37BD465DF8047B704795
:100F90000000014090B484B000AF02460B46FA71E5
:100FA000BB710023FB60BB7903F003039B000F229E
:100FB00002FA03F3FB60154BBA799208D2B21349D7
:100FC000B8798008C0B2023051F82000F968C943EE
:100FD0000140023243F822100C4BBA799208D2B287
:100FE0000A49B8798008C0B2023051F82000FC7973
:100FF000B97901F00301890004FA01F101430232D9
:1010000043F822101037BD4690BC704700000140E5
:1010100080B483B000AF0346FB71084B97F90720FB
:101020005209F97901F01F01012000FA01F143F89A
:1010300022100C37BD465DF8047B704700E100E0EC
:1010400080B483B000AF03463960FB7197F9073075
:10105000002B0BDA0D49FB7903F00F03043B3A68D0
:10106000D2B21201D2B20B441A7609E0084997F9BC
:1010700007303A68D2B21201D2B20B4483F800238F
:101080000C37BD465DF8047B704700BF00ED00E003
:1010900000E100E080B582B000AF78607B68B3F11A
:1010A000807F01D3012311E00A4B7A6822F07F424E
:1010B000013A5A604FF0FF300F21FFF7C1FF054B97
:1010C00000229A60034B07221A6000231846083753
:1010D000BD4680BD10E000E080B500AF44F67D0065
:1010E000012104F0ABFD054B1A68054BA3FB02136D
:1010F0009B091846FFF7CEFF80BD00BF2C000020E3
:10110000D34D621080B483B000AF78607A68064B2C
:101110001A6000BF044B1B68002BFBD10C37BD4687
:101120005DF8047B704700BF180F002080B400AF4B
:101130001F4B1B68002B04D01D4B1B685A1E1C4BF9
:101140001A601C4B1B685A1C1A4B1A601A4B1B68FE
:101150005A1C194B1A60194B1B780133DAB2174B22
:101160001A70174B1B685A1C154B1A60154B1B88BD
:10117000002B05D0134B1B88013B9AB2114B1A80F0
:10118000114B1B68B3F57A7F04DA0F4B1B685A1CAE
:101190000D4B1A600D4B1B78012B05D10C4B1B78A6
:1011A0000133DAB20A4B1A70BD465DF8047B704712
:1011B000180F0020FC080020700900207C09002086
:1011C00078090020A809002068090020CD2B002004
:1011D000CC2B002080B500AF03200721FFF7DAFEFB
:1011E000354B00221A71344B08225A71324B80223F
:1011F0001A60314B01229A712F4804F05BFD0320E5
:101200000621FFF7C7FE2C4B00221A712A4B082239
:101210005A71294B40221A60274804F04BFD0320E5
:101220000521FFF7B7FE244B00221A71224B08223A
:101230005A71214B20221A601F4804F03BFD1720F1
:101240000121FFF7FDFE1720FFF7E2FE0320042136
:10125000FFF7A0FE184B00221A71174B08225A7193
:10126000154B10221A60144B01229A71124804F097
:1012700021FD0A200521FFF7E3FE0A20FFF7C8FE43
:1012800003200321FFF786FE0B4B00221A710A4B45
:1012900008225A71084B08221A60074B01229A71E2
:1012A000054804F007FD09200421FFF7C9FE0920C5
:1012B000FFF7AEFE80BD00BFD42B002080B500AF8D
:1012C000102004F073FD0346002B08D0102004F01A
:1012D0005FFD102004F08EFD014B01221A6080BDDD
:1012E000580C002080B500AF082004F05FFD0346D5
:1012F000002B08D0082004F04BFD082004F07AFDF4
:10130000014B01221A6080BD140A002080B500AF95
:10131000202004F04BFD0346002B08D0202004F0D1
:1013200037FD202004F066FD224B01221A70402078
:1013300004F03CFD0346002B08D0402004F028FDBB
:10134000402004F057FD1C4B01221A70802004F04D
:101350002DFD0346002B08D0802004F019FD8020CD
:1013600004F048FD154B01221A704FF4807004F010
:101370001DFD0346002B0AD04FF4807004F008FDD9
:101380004FF4807004F036FD0D4B01221A704FF4BB
:10139000007004F00BFD0346002B0AD04FF40070E0
:1013A00004F0F6FC4FF4007004F024FD054B01221C
:1013B0001A7080BD7C0C0020090A0020ED09002075
:1013C000720C00205C0C002080B500AF4FF4006070
:1013D00004F0ECFC0346002B06D04FF4006004F050
:1013E00009FD254B01221A704FF4806004F0DEFCE9
:1013F0000346002B06D04FF4806004F0FBFC1F4B2B
:1014000001221A704FF4805004F0D0FC0346002BE8
:1014100006D04FF4805004F0EDFC194B01221A70F5
:101420004FF4005004F0C2FC0346002B06D04FF4EA
:10143000005004F0DFFC134B01221A704FF480407F
:1014400004F0B4FC0346002B06D04FF4804004F0B7
:10145000D1FC0D4B01221A704FF4004004F0A6FCA1
:101460000346002B06D04FF4004004F0C3FC074BAA
:1014700001221A7080BD00BFE4090020650C002025
:10148000080A0020730C0020020A0020760C0020BD
:1014900080B500AF49480121FFF70CFD484B484A91
:1014A000526842F000725A60464B10221A80454B37
:1014B0001022DA70434B03229A7043484149FFF7E8
:1014C00023FC404B4FF4C8521A803E4B4822DA703E
:1014D0003C4B03229A703C483A49FFF715FC394BC4
:1014E0004FF480521A80374B1022DA70354B0322AA
:1014F0009A7036483349FFF707FC324B40F202320C
:101500001A80304B4822DA702E4B03229A702F48F3
:101510002C49FFF7F9FB2B4B4FF470521A80294BE3
:101520001022DA70274B03229A7029482549FFF7C9
:10153000EBFB244B4FF470721A80224B4822DA7076
:10154000204B03229A7022481E49FFF7DDFB1D4BFA
:101550004FF603721A801B4B1022DA70194B0322CC
:101560009A701C481749FFF7CFFB164BFC221A80D4
:10157000144B4822DA70134B03229A701548114914
:10158000FFF7C2FB0F4B7C221A800E4B1022DA7041
:101590000C4B03229A7010480A49FFF7B5FB094B20
:1015A0004FF683721A80074B4822DA70054B0322EC
:1015B0009A7009480349FFF7A7FB80BD000430007B
:1015C00000000140D428002000080140000C014028
:1015D00000100140001401400018014080B500AF28
:1015E0004FF4804004F03EFA4FF40070012104F003
:1015F00025FB0420012104F021FB264B30221A8018
:10160000244B0022DA70234B03229A70224821498E
:10161000FFF77AFB214B00221A60204B00221A713F
:101620001E4B00225A711D4B4FF460229A601B4BD7
:101630000022DA60194B01221A741948174904F084
:10164000E7FB012004F0E0FC15484FF4087101228B
:1016500004F04CFC1220FFF7DBFC1148012104F0E0
:1016600029FC0F4804F064FC00BF0D4804F070FC36
:101670000346002BF9D10A4804F082FC00BF084859
:1016800004F08EFC0346002BF9D10548012104F03B
:101690009FFC80BDD4280020001001407020002055
:1016A0000024014080B400AF084B084A126822F0C1
:1016B00002021A60054BDA6C054B1A60054B0122D9
:1016C0001A70BD465DF8047B704700BF00240140DE
:1016D000900900208C09002080B582B000AF7860AE
:1016E0000A4B7A685A630A4B00221A700748012194
:1016F00004F06EFC00BF064B1B78012BFBD1054BA1
:101700001B6818460837BD4680BD00BF0024014055
:101710008C0900209009002080B500AF264B4FF4C3
:1017200000721A80244B03229A70234B1822DA701D
:1017300022482149FFF7E8FA1F4B4FF480621A80D4
:101740001D4B03229A701C4B0422DA701B481A4965
:10175000FFF7DAFA4FF48040012104F06FFA184BDA
:101760004FF4E1321A60164B00229A80144B00228B
:10177000DA80134B00221A81114B0C225A81104B34
:1017800000229A8125200F21FFF75AFC2520FFF720
:101790003FFC0C4840F22551012204F02BFD094882
:1017A000012104F007FD0748054904F049FC012028
:1017B000012104F025FA80BDD42800200008014052
:1017C0003C2000200038014080B58EB000AF78602A
:1017D0000B467B801D4804F039FE1D4BFB607B6887
:1017E0003B6110237B617B88BB610023FB6180230D
:1017F0003B6200237B620023BB620023FB62002369
:101800003B6300237B6307F10C031048194604F087
:10181000D9FE0E200E21FFF713FC0E20FFF7F8FB78
:101820000A480221012204F027FF0A48C02104F0DF
:1018300069FD08488021012204F024FD03480121AC
:1018400004F0FEFE3837BD4680BD00BF44000240B4
:10185000043801400038014080B500AF4FF400501B
:1018600004F028FF0346002B14D00C48002104F09C
:10187000E7FE4FF4005004F047FF4FF4005004F02F
:101880005DFF0748002104F0DBFE0648C02100226E
:1018900004F0F8FC044B00221A7080BD580002408E
:1018A0004400024000380140AA09002080B500AF82
:1018B000214B04221A80204B03229A701E4B1822BF
:1018C000DA701E481C49FFF71FFA1B4B08221A80CA
:1018D000194B03229A70184B0422DA7017481649E4
:1018E000FFF712FA4FF40030012104F0C5F9144B50
:1018F000144A1A60124B00229A80114B0022DA809F
:101900000F4B00221A810E4B0C225A810C4B0022E5
:101910009A812620FFF77CFB0B4840F225510122DB
:1019200004F068FC0848012104F044FC064804491E
:1019300004F086FB80BD00BFD428002000080140D1
:10194000340F0020688909000044004080B584B04D
:1019500000AF0023FB600023FB720D4B1B78DBB252
:10196000002B12D10B4B1B68012B0ED9094B1B68A6
:101970007B607B689BB208481946FFF725FF054B43
:1019800000221A60024B01221A701037BD4680BD3A
:10199000AA090020280F00203C10002080B584B048
:1019A00000AF78600023BB810023FB811A4B1B78BA
:1019B000DBB2002B2DD1786807F052FA0346BB81C9
:1019C000BA89164B1B681A4440F6FB739A4202D937
:1019D000124B00221A60114B1B68FB810CE0FB8943
:1019E000F9890E4A12688A1A79680A4411780C4AF1
:1019F000D154FB890133FB81FA89B989074B1B68F4
:101A00000B449A42EBD3BA89044B1B681A44034B2C
:101A10001A601037BD4680BDAA090020280F00209B
:101A20003C10002080B485B000AF7860396000239E
:101A3000FB600F4B1B78DBB2002B11D10023FB6046
:101A40000AE0FB687A6813441A780A49FB680B4479
:101A50001A70FB680133FB60FA683B689A42F0DB5E
:101A60003A68054B1A601437BD465DF8047B704731
:101A7000AA0900203C100020280F002080B485B067
:101A800000AF78600B46FB701A4B1B78DBB2002B63
:101A90002AD1FB78BB81BA89174B1B681A4440F6E0
:101AA000FB739A4202D9144B00221A60124B1B6836
:101AB000FB810CE0FB89F9890F4A12688A1A796860
:101AC0000A4411780D4AD154FB890133FB81FA890C
:101AD000B989094B1B680B449A42EBD3BA89064B70
:101AE0001B681A44044B1A601437BD465DF8047B2A
:101AF000704700BFAA090020280F00203C100020DA
:101B000080B586B000AF0920012104F097F84FF4AA
:101B10008040012104F0B0F84FF42043BB82182329
:101B2000FB750323BB7507F114031A481946FFF729
:101B3000EBF84FF48043BB821C23FB750323BB757A
:101B400007F1140313481946FFF7DEF800233B8022
:101B50004FF482737B800023BB800023FB80002333
:101B60003B814FF400737B810823BB810023FB8101
:101B70003B460948194604F0FBFD0748012104F0E3
:101B80003BFE05484FF4807104F072FE1837BD46E5
:101B900080BD00BF000C01400038004080B582B01D
:101BA00000AF0748012104F085FE0346012B03D155
:101BB000034B9B899BB2FB710837BD4680BD00BFBC
:101BC0000030014080B584B000AF0346FB71FB7963
:101BD0009BB20F48194604F02FFE00BF0C480221AB
:101BE00004F068FE0346002BF8D000BF084801212E
:101BF00004F060FE0346002BF8D0054804F02AFEEE
:101C00000346FB73FB7B18461037BD4680BD00BF03
:101C10000038004080B582B000AF786000BF074850
:101C2000802104F053FB0346002BF8D0034B7A6865
:101C300092B29A800837BD4680BD00BF0044004084
:101C400080B582B000AF154840F2255104F06AFB20
:101C50000346002B04D0114840F2255104F0BAFB92
:101C60000E4B9B889BB2FB710D4B1B785A1CD1B25B
:101C70000B4A11700B4AF979D1540B4B1B78013385
:101C8000DAB2094B1A70054B1B889BB2BB71034B30
:101C90009B889BB2BB710837BD4680BD00380140B0
:101CA000BC2B0020180E0020F427002080B582B045
:101CB00000AF154840F2255104F034FB0346002BD9
:101CC00004D0114840F2255104F084FB0E4B9B8850
:101CD0009BB2FB710D4B1B785A1CD1B20B4A117091
:101CE0000B4AF979D1540B4B1B780133DAB2094B0B
:101CF0001A70054B1B889BB2BB71034B9B889BB230
:101D0000BB710837BD4680BD0044004068200020FC
:101D1000942000202C0F002080B485B000AF7860A4
:101D20000023FB7302E0FB7B0133FB73FB7B7A68D0
:101D300013441B78002B02D0FB7B772BF3D9FB7B62
:101D400018461437BD465DF8047B704780B483B0F5
:101D500000AF00BF0C4B1B78002BFBD00B4B1B784C
:101D60005A1CD1B2094A1170094AD35CFB71064B67
:101D70001B78013BDAB2044B1A70FB7918460C371A
:101D8000BD465DF8047B7047F42700208C200020BE
:101D9000180E002080B586B000AF786000237B610C
:101DA000786807F05DF80346013B3B6117E07B690B
:101DB0007A6813441B78FB737B697A6813443A6929
:101DC00079680A4412781A703B697A681344FA7B7E
:101DD0001A707B6901337B613B69013B3B617A6926
:101DE0003B699A42E3DB1837BD4680BD80B584B0BD
:101DF00000AF786039607B68BB60BB68002B02DA9B
:101E00007B685B427B600023FB60FB685A1CFA60C6
:101E10003A68D0187968174B83FB01239A10CB17C7
:101E2000D21A13469B0013445B00CA1AD3B2303354
:101E3000DBB203707B680F4A82FB03129210DB1740
:101E4000D31A7B607B68002BDFDCBB68002B06DAD3
:101E5000FB685A1CFA603A6813442D221A70FB681A
:101E60003A68134400221A703868FFF793FF10375E
:101E7000BD4680BD6766666680B582B000AF78609B
:101E800039607868FFF78AFD3B6818460549FFF717
:101E9000ADFF0448FFF782FD0348FFF77FFD0837D9
:101EA000BD4680BDDC2B0020C8D1000880B582B0C3
:101EB00000AF786039607868FFF770FD3B681846BE
:101EC0000449FFF793FF0348FFF768FD0837BD4655
:101ED00080BD00BFDC2B002080B582B000AF7860F1
:101EE00039607868FFF75AFD064807493A6806F0F6
:101EF00073FE0448FFF752FD0448FFF74FFD083713
:101F0000BD4680BDDC2B0020CCD10008C8D1000824
:101F100080B582B000AF786039607868FFF73EFD29
:101F2000054806493A6806F057FE0348FFF736FDB4
:101F30000837BD4680BD00BFDC2B0020CCD1000897
:101F400080B400AF4C4B0022DA804B4B4FF6FF724F
:101F50009A80494B00229A81474B4FF6FF725A8173
:101F6000454B00225A82444B4FF6FF721A82424B75
:101F700000221A83404B4FF6FF72DA823E4B00225A
:101F8000DA833D4B4FF6FF729A833B4B00229A84D3
:101F9000394B4FF6FF725A84374B00225A85364B25
:101FA0004FF6FF721A85344B00221A86324B4FF6D9
:101FB000FF72DA85304B0022DA862F4B4FF6FF7224
:101FC0009A862D4B00229A872B4B4FF6FF725A8729
:101FD000294B0022A3F84220274B4FF6FF72A3F8AB
:101FE0004020254B0022DA64234B4FF0FF329A64E5
:101FF000214B00229A65204B4FF0FF325A651E4B51
:1020000000225A661C4B4FF0FF321A661A4B002210
:102010001A67194B4FF0FF32DA66174B0022DA6766
:10202000154B4FF0FF329A67134B0022C3F88820FC
:10203000114B4FF0FF32C3F884200F4B0022C3F83E
:1020400094200D4B4FF0FF32C3F890200A4B002232
:10205000C3F8A020084B4FF0FF32C3F89C20064B7A
:102060000022C3F8AC20044B4FF0FF32C3F8A82085
:10207000BD465DF8047B70476C0F00200000000037
:1020800090B585B000AF0346FB71974B974A5A62F3
:10209000954B974A9A62944B964ADA62924B964ACB
:1020A0001A63914B954A5A638F4B954ADA638E4B6C
:1020B000944A1A668C4B944AC3F8A4208A4B934ADC
:1020C000C3F81821884B4FF00002C3F80822864B52
:1020D0008F4AC3F89823844B4FF08242C3F82825D7
:1020E0000023FB8115E0FB89A3F1090213465B0085
:1020F00013445B00A3F51673184606F0BFFA0346B7
:10210000BB60FA89784BB96843F82210FB89013328
:10211000FB81FB89082BE6D90923FB8126E0FB899B
:10212000093B184605F078FE02460B461046194654
:1021300063A3D3E9002305F0D5FE02460B46104603
:1021400019464FF00002734B05F018FD02460B468E
:102150001046194606F088F90346BB60FA89624BBF
:10216000B96843F82210FB890133FB81FB890F2BEF
:10217000D5D90F23FB8113E0FB89A3F10F0213468E
:102180009B001344C83B184606F078FA0346BB6030
:10219000FA89554BB96843F82210FB890133FB815A
:1021A000FB89182BE8D91823FB8126E0FB89183B13
:1021B000184605F031FE02460B461046194642A36A
:1021C000D3E9002305F08EFE02460B461046194661
:1021D0003FA3D3E9002305F0D1FC02460B4610468D
:1021E000194606F041F90346BB60FA893E4BB968CF
:1021F00043F82210FB890133FB81FB89292BD5D9B8
:102200002923FB8126E0FB89293B184605F004FEC3
:1022100002460B46104619462FA3D3E9002305F0CA
:1022200061FE02460B46104619464FF000023A4B3B
:1022300005F0A4FC02460B461046194606F014F9B8
:102240000346BB60FA89284BB96843F82210FB8922
:102250000133FB81FB89462BD5D94623FB8126E040
:10226000FB89463B184605F0D7FD02460B46104653
:1022700019461BA3D3E9002305F034FE02460B46A2
:10228000104619464FF00002244B05F077FC024639
:102290000B461046194606F0E7F80346BB60FA897C
:1022A000114BB96843F82210FB890133FB81FB898C
:1022B000822BD5D98223FB815AE000BFAFF3008087
:1022C0009A999999999920409A999999999905403B
:1022D0000000000000C06240333333333333FB3F30
:1022E0008FC2F5285C8FEA3FFC2100200000C8C1A6
:1022F0000000C0C10000B8C10000B0C10000A8C10A
:102300000000A0C1000070C1000020C10000A0C0FA
:102310000000A04000406F400000594000004940CC
:10232000FB89823B184605F077FD02460B461046B6
:1023300019464FF00002384B05F0D4FD02460B461B
:10234000104619464FF000024FF0000305F018FC4C
:1023500002460B461046194606F086F80346BB6057
:10236000FA892E4BB96843F82210FB890133FB81AF
:10237000FB89E62BD4D9E623FB8126E0FB89E63BEB
:10238000184605F049FD02460B461046194620A3A3
:10239000D3E9002305F0A6FD02460B461046194678
:1023A0004FF000021E4B05F0EBFB02460B461046B9
:1023B000194606F059F80346BB60FA89174BB9680D
:1023C00043F82210FB890133FB81FB89B3F5A77F1A
:1023D000D4D3FB79002B17D00023FB8110E0FC89BC
:1023E000FA890E4B53F8223018460E4906F04EFA81
:1023F00003461A46094B43F82420FB890133FB812D
:10240000FB89B3F5A77FEAD31437BD4690BD00BF63
:102410008FC2F5285C8FD23F0000E03FFC210020F6
:10242000000049400000204180B588B000AF7860CE
:102430000023FB610023BB6100237B6100233B6120
:102440000023FB732C4B1B68FB612B4B1B68002B81
:1024500003D17868FFF760FCF861274B00221A600F
:10246000FB69BB61254B00221A60254B1B6818468F
:10247000244906F013FB0346002B03D1224B1B8893
:102480009D2B37D9214B00221A701D4B4FF00002B3
:102490001A601F4B00221A601E4B00221A701E4B3E
:1024A00000221A701D4B00221A601D4B01221A6077
:1024B0001C4B01221A601C4B00221A701B4B00227D
:1024C0001A701B4B00221A701A4B00221A601A4B0A
:1024D00000221A60194B20221A70194B20221A7000
:1024E000184B00221A70184B00221A70064B00225B
:1024F0001A80A7E1A6E100BF080900201809002002
:10250000300F002000004842360900201609002044
:102510001009002014090020150900201C090020C2
:1025200020090020240900202C0900202D0900206A
:102530002E0900202809002030090020800C0020EE
:10254000242700203809002034090020774B1B681D
:102550007A6813441B787E2B3AD1754B1B78002B7D
:1025600036D1734B01221A70724B4FF000021A6081
:10257000714B00221A60714B00221A70704B0022BE
:102580001A70704B00221A606F4B01221A606F4B59
:1025900001221A606E4B00221A706E4B00221A70D4
:1025A0006D4B00221A706D4B00221A606C4B00229A
:1025B0001A606C4B20221A706B4B20221A706B4BE6
:1025C00000221A706A4B00221A706A4B00221A808D
:1025D000594B1B68554A126879680A441178664A53
:1025E000D154644B1B8801339AB2624B1A80524B10
:1025F0001B68614AD35C3B2B10D15D4B1B78002BD1
:102600000CD14B4B1B78012B08D1494B00221A707F
:102610004B4B01221A70554B01221A70464B1B6816
:10262000554AD35C3D2B05D0434B1B68524AD35CC3
:102630003A2B09D1464B1B78002B05D1444B012284
:102640001A704A4B01221A703B4B1B684A4AD35CF2
:102650002E2B0DD13F4B1B78002B09D1444B1B78FF
:10266000002B05D13B4B01221A70404B01221A70FE
:10267000314B1B68404AD35C242B09D1364B1B7865
:10268000002B05D1344B02221A70384B01221A70EC
:10269000294B1B68022B40F29A80374B9B78202BEA
:1026A00040F09580314B1B78002B40F090802A4BF6
:1026B0001B78012B00F28B80254B1B78012B07D058
:1026C000204B1B681C4A12682B49895C2B4AD15449
:1026D0001F4B1B78012B0BD11E4B1B78002B07D1F6
:1026E000194B1B68144A12682349895C1D4AD1544E
:1026F000174B1B78012B0BD1164B1B78012B07D1E5
:10270000124B1B680C4A12681B49895C164AD1544B
:102710000F4B1B78012B33D00A4B1B681F2B56D84D
:10272000084B1B685A1C074B1A6050E01809002020
:1027300016090020300F0020100900201409002085
:10274000150900201C090020200900202409002070
:102750002C0900202D0900202E0900202809002026
:1027600030090020800C0020242700203809002098
:102770003409002036090020F8270020440F0020EB
:102780009C4B1B78012B11D19B4B1B78002B0DD13F
:102790009A4B1B68C72B09D8984B1B685A1C974B40
:1027A0001A60974B1B685A1C954B1A60914B1B780B
:1027B000012B0CD1904B1B78012B08D1914B1B683E
:1027C000C72B04D88F4B1B685A1C8E4B1A608E4B3C
:1027D0001B78022B0DD18D4B1B78002B09D18C4B14
:1027E0001B688C4AD35C1A468B4B1A60864B0122BD
:1027F0001A70834B1A68884B1B689A4207D2824B27
:102800001B78012B03D1854B01221A7002E0834B08
:1028100000221A707E4B1B68C72B04D87C4B1B68A8
:102820005A1C7B4B1A607E4B1B68C72B04D87C4B11
:102830001B685A1C7A4B1A60FB69013BFB61734BA6
:1028400000221A70FB69002B7FF480AE754B1B7859
:10285000012B40F04A87744B1B685A1C724B1A605C
:102860006C4B1B787E2B06D1704B1B7843F0010319
:10287000DAB26E4B1A70674B5A786D4B1B789A42DE
:1028800006D16A4B1B7843F00203DAB2674B1A7029
:10289000664B1B78032B40F0B4866648664906F009
:1028A000C1F90346002B13D1644806F027F903460B
:1028B0001A46634B1A60624B1B6862481946FFF761
:1028C000DBFA5F4B1B681846FFF7A4F900F099BECE
:1028D00058485D4906F0A6F90346002B1FD157481A
:1028E00006F00CF903461A46554B1A60544B1B6808
:1028F00056481946FFF7C0FA514B1B68002B03D10D
:10290000534B4FF400625A614D4B1B68012B40F052
:1029100078864F4B4FF400621A6100F072BE454852
:102920004C4906F07FF90346002B12D14A48FFF7C5
:1029300035F84A48FFF732F8454B4FF480625A6148
:102940000120FEF7DFFB424B4FF480621A6100F07A
:1029500058BE3848424906F065F90346002B19D1A4
:102960004048FFF71BF83D48FFF718F8334806F0DA
:10297000C5F803461A46324B1A60314B1B689BB2AE
:102980001846FDF73BFC034637481946FFF7A4FA03
:1029900000F037BE2748354906F044F90346002BBE
:1029A00009D13348FEF7FAFF2C48FEF7F7FFFDF791
:1029B000A3FE00F026BE1F482E4906F033F9034659
:1029C000002B5BD12A48FEF7E9FF1C4806F096F879
:1029D00003461A461A4B1A60194B1B689BB21846DD
:1029E000FDF70CFC034624481946FFF775FA00F082
:1029F00008BE00BF2C0900202D090020200900205E
:102A000030090020240900202E0900203809002068
:102A100010090020F8270020280900203409002090
:102A2000180900201509002054090020140900206D
:102A300040000020440F0020FCD10008800C002042
:102A40004009002008D200081CD2000828D2000843
:102A5000001401403CD2000844D2000854D20008BF
:102A600058D2000864D2000878D200087CD200084E
:102A700080D200088CD2000898D2000899489A4960
:102A800006F0D0F80346002B0DD19848FEF786FFDC
:102A90009748FEF783FF974B1B7897481946FFF737
:102AA0001BFA00F0AEBD8F48944906F0BBF8034610
:102AB000002B0AD19248FEF771FF8D48FEF76EFF9A
:102AC000002000F071FF00F09CBD86488D4906F0A3
:102AD000A9F80346002B07D18948FEF75FFF844819
:102AE000FEF75CFF00F08DBD7E48874906F09AF83E
:102AF0000346002B09D18548FEF750FF7C48FEF7BE
:102B00004DFF02F08BF900F07CBD7648804906F05D
:102B100089F80346002B09D17E48FEF73FFF744831
:102B2000FEF73CFF01F068FC00F06BBD6D487A4990
:102B300006F078F80346002B09D17848FEF72EFFFF
:102B40006B48FEF72BFF02F0DBF800F05ABD65483A
:102B5000734906F067F80346002B09D17148FEF768
:102B60001DFF6348FEF71AFF00F01EFF00F049BD8D
:102B70005C486D4906F056F80346002B2AD16B4895
:102B800005F0BCFF03461A46694B1A60694805F018
:102B9000B5FF03461A46684B1A60654B1B686748C9
:102BA0001946FFF783F9644B1B6865481946FFF720
:102BB00063F95F4B1B68DAB25F4B1B68DBB21046F0
:102BC000194601F091F803465E481946FFF784F96B
:102BD00000F017BD43485C4906F024F80346002B7B
:102BE00026D1524805F08AFF03461A46504B1A6018
:102BF000504805F083FF03461A464F4B1A604C4B72
:102C00001B6852481946FFF737F94B4B1B68504871
:102C10001946FFF731F9464B1B68DAB2464B1B6881
:102C2000DBB2104619464B4A00F0F6FF00F0E9BC53
:102C30002C48494905F0F6FF0346002B1AD13B48C2
:102C400005F05CFF03461A46394B1A60394805F017
:102C500055FF03461A46384B1A60354B1B683F48F0
:102C60001946FFF709F9324B1B68184601F09AF82C
:102C700000F0C7BC1B483A4905F0D4FF0346002BBF
:102C80001AD12A4805F03AFF03461A46284B1A6023
:102C9000284805F033FF03461A46274B1A60244B99
:102CA0001B6830481946FFF7E7F8214B1B681846A8
:102CB00001F0ACF800F0A5BC0A482B4905F0B2FFC2
:102CC0000346002B58D12948FEF768FE0848FEF756
:102CD00065FE274B012283F86720264B00221A60ED
:102CE00000F08FBC440F0020A0D20008A4D200083E
:102CF00054D20008E5090020B0D20008B8D200087C
:102D0000C0D20008D0D20008D8D20008E0D2000813
:102D1000F0D20008FCD2000810D300081CD3000831
:102D200030D3000838D3000848D30008800C0020B6
:102D300040090020242700203C09002050D300082F
:102D400060D3000898D2000864D300086CD3000850
:102D50007CD30008DDCCBBAA80D3000890D3000848
:102D6000A8D30008B8D30008D0D30008D8D30008EF
:102D700094210020680C00208D488E4905F052FFF8
:102D80000346002B17D18C4805F0B8FE03461A46BF
:102D90008A4B1A60894B1B6889481946FFF76CF803
:102DA000864B1B68DAB2874B83F85620864B00228D
:102DB0001A6000F026BC7E48844905F033FF0346C4
:102DC000002B12D17C4805F099FE03461A467B4B36
:102DD0001A607A4B1B687E481946FFF74DF8774B0F
:102DE0001A68784BDA6000F00CBC7148794905F03C
:102DF00019FF0346002B11D16F4805F07FFE0346F3
:102E00001A466E4B1A606D4B1B6873481946FFF7E4
:102E100033F86A4B1A686B4B1A61F2E364486F49E6
:102E200005F000FF0346002B11D1634805F066FE54
:102E300003461A46614B1A60604B1B686848194686
:102E4000FFF71AF85D4B1A685E4B5A61D9E3584890
:102E5000644905F0E7FE0346002B11D1564805F002
:102E60004DFE03461A46554B1A60544B1B685E488C
:102E70001946FFF701F8514B1A68524B9A61C0E3AB
:102E80004B485A4905F0CEFE0346002B12D14A4862
:102E900005F034FE03461A46484B1A60474B1B6840
:102EA00053481946FEF7E8FF444B1B689AB2454B5E
:102EB0009A83A6E33E484F4905F0B4FE0346002B33
:102EC00011D13D4805F01AFE03461A463B4B1A60E5
:102ED0003A4B1B6848481946FEF7CEFF374B1A6835
:102EE000384B1A628DE33248444905F09BFE034695
:102EF000002B11D1304805F001FE03461A462F4B36
:102F00001A602E4B1B683E481946FEF7B5FF2B4B47
:102F10001A682C4B5A6274E325483A4905F082FE40
:102F20000346002B11D1244805F0E8FD03461A465C
:102F3000224B1A60214B1B6833481946FEF79CFF51
:102F40001E4B1A681F4B9A625BE319482F4905F024
:102F500069FE0346002B11D1174805F0CFFD03464B
:102F60001A46164B1A60154B1B6829481946FEF77E
:102F700083FF124B1A68134BDA6242E30C4825496F
:102F800005F050FE0346002B48D10B4805F0B6FD76
:102F900003461A46094B1A60084B1B681E4819461F
:102FA000FEF76AFF054B1B689AB2064B1A8628E3A8
:102FB000440F0020E8D30008800C002040090020C6
:102FC000ECD3000894210020680C0020F8D30008FE
:102FD00000D4000810D4000818D4000828D4000831
:102FE00030D4000840D4000848D4000858D4000861
:102FF00060D4000870D4000878D4000888D4000891
:1030000090D40008A0D40008A8D40008B8D40008C0
:10301000C0D40008D0D40008D8D400088F48904904
:1030200005F000FE0346002B11D18E4805F066FD29
:1030300003461A468C4B1A608B4B1B688B4819460B
:10304000FEF71AFF884B1A68894B5A63D9E2834806
:10305000884905F0E7FD0346002B11D1814805F0B2
:103060004DFD03461A46804B1A607F4B1B68824811
:103070001946FEF701FF7C4B1A687D4B9A63C0E24C
:1030800076487E4905F0CEFD0346002B11D17548E8
:1030900005F034FD03461A46734B1A60724B1B68E9
:1030A00077481946FEF7E8FE6F4B1A68704BDA63F3
:1030B000A7E26A48734905F0B5FD0346002B11D11C
:1030C000684805F01BFD03461A46674B1A60664BBD
:1030D0001B686D481946FEF7CFFE634B1A68644BB8
:1030E0009A618EE25D48694905F09CFD0346002B1C
:1030F00013D15C4805F002FD03461A465A4B1A608C
:10310000594B1B6862481946FEF7B6FE564B1B68C2
:103110009AB2574BA3F8442073E250485D4905F03A
:1031200081FD0346002B13D14E4805F0E7FC034612
:103130001A464D4B1A604C4B1B6857481946FEF710
:103140009BFE494B1B68DAB2494B83F8502058E28A
:103150004248524905F066FD0346002B11D1414813
:1031600005F0CCFC03461A463F4B1A603E4B1B68E9
:103170004B481946FEF780FE3B4B1A683C4B1A60E1
:103180003FE23648474905F04DFD0346002B11D17B
:10319000344805F0B3FC03461A46334B1A60324BF1
:1031A0001B6841481946FEF767FE2F4B1A68304BE3
:1031B0005A6026E229483D4905F034FD0346002BBC
:1031C00011D1284805F09AFC03461A46264B1A608E
:1031D000254B1B6836481946FEF74EFE224B1A68EF
:1031E000234B9A600DE21D48324905F01BFD034652
:1031F000002B11D11B4805F081FC03461A461A4BDF
:103200001A60194B1B682C481946FEF735FE164B01
:103210001A68174B9A64F4E11048284905F002FD3A
:103220000346002B4ED10F4805F068FC03461A46B2
:103230000D4B1A600C4B1B6821481946FEF71CFE0B
:10324000094B1B68DAB20A4B83F85120084B93F8FC
:103250006730184601F00AFCD3E100BF440F00209C
:10326000E8D40008800C002040090020F0D40008B9
:103270009421002000D5000808D5000818D50008C2
:1032800020D5000830D5000838D5000848D50008FA
:1032900050D5000860D5000868D5000878D500082A
:1032A00084D5000898D50008A8D50008C0D5000826
:1032B000CCD50008E0D50008E4D50008F0D500081A
:1032C000F8D500089748984905F0ACFC0346002B58
:1032D0001DD1964805F012FC03461A46944B1A601D
:1032E000934B1B6893481946FEF7C6FD904B1B682D
:1032F000DAB2914B83F852208F4B002283F867207B
:103300008D4B93F86730184601F0B0FB79E18548A2
:103310008A4905F087FC0346002B1DD1834805F040
:10332000EDFB03461A46824B1A60814B1B688448AA
:103330001946FEF7A1FD7E4B1B68DAB27E4B83F87F
:1033400053207D4B002283F867207B4B93F8673036
:10335000184601F08BFB54E172487A4905F062FC93
:103360000346002B1DD1714805F0C8FB03461A46E1
:103370006F4B1A606E4B1B6873481946FEF77CFD55
:103380006B4B1B68DAB26C4B83F854206A4B0022FB
:1033900083F86720684B93F86730184601F066FBA6
:1033A0002FE16048694905F03DFC0346002B1DD123
:1033B0005E4805F0A3FB03461A465D4B1A605C4B62
:1033C0001B6863481946FEF757FD594B1B68DAB274
:1033D000594B83F85520584B002283F86720564BF1
:1033E00093F86730184601F041FB0AE14D4859490E
:1033F00005F018FC0346002B12D14C4805F07EFB6B
:1034000003461A464A4B1A60494B1B6852481946F4
:10341000FEF732FD464B1B68184601F065FEF0E0F2
:1034200040484E4905F0FEFB0346002B0FD13F48B4
:1034300005F064FB03461A463D4B1A603C4B1B6883
:1034400047481946FEF718FD00F01AFDD9E0354847
:10345000444905F0E7FB0346002B14D1334805F03F
:103460004DFB03461A46324B1A60314B1B683E48EF
:103470001946FEF701FD2E4B1B68082004211A4651
:1034800000F0CAFBBDE02748384905F0CBFB0346F6
:10349000002B17D1254805F031FB03461A46244B73
:1034A0001A60234B1B6832481946FEF7E5FC204B97
:1034B0001B681846FEF710F903462E481946FEF71A
:1034C000DBFC9EE017482C4905F0ACFB0346002BC3
:1034D0000FD1164805F012FB03461A46144B1A602A
:1034E000134B1B6825481946FEF7C6FCFDF7A8FAE2
:1034F00087E00C48224905F095FB0346002B45D197
:103500000A4805F0FBFA03461A46094B1A60084BB5
:103510001B681C481946FEF7AFFC1B48FDF7ECF88A
:103520006FE000BF440F002008D60008800C002088
:10353000400900200CD600089421002018D600086D
:103540001CD6000828D600082CD6000838D600085B
:103550003CD6000848D6000854D6000868D60008B3
:1035600074D6000888D6000894D60008A8D60008AB
:10357000ACD60008B8D60008C0D60008CCD60008E3
:10358000E0D60008ECD60008E028002069486A4927
:1035900005F048FB0346002B14D1684805F0AEFA4D
:1035A00003461A46664B1A60654B1B686548194608
:1035B000FEF762FC624B1B68082063211A4600F08C
:1035C0002BFB1EE05B48604905F02CFB0346002BFB
:1035D00017D15E48FEF7E2F9584805F08FFA034626
:1035E0001A46574B1A60564B1B68002B02D158489D
:1035F000FEF7D4F9524B1B68012B02D15548FEF758
:10360000CDF90023FB6107E04A4AFB69134400221D
:103610001A70FB690133FB61FB691F2BF4D900238E
:10362000FB6107E0454AFB69134400221A70FB69FD
:103630000133FB61FB69C82BF4D90023FB6107E070
:10364000454AFB69134400221A70FB690133FB6190
:10365000FB69C82BF4D90023FB6107E03F4AFB69F3
:10366000134400221A70FB690133FB61FB69C72B0D
:10367000F4D93B4B4FF000021A603A4B00221A700B
:10368000394B00221A60394B00221A700023FB616B
:10369000374B00221A70374B00221A60364B00223B
:1036A0001A60364B00221A70354B00221A60354BD7
:1036B00000221A70344B00221A60344B00221A7018
:1036C000334B00221A60334B00221A60324B002227
:1036D0001A70324B00221A70184B20221A701E4B9F
:1036E00020221A702E4B00221A80214B1B78012BAE
:1036F0001DD11E4B1B78012B19D12A4B1B78002B97
:1037000015D12948FEF74AF9174B1B68DBB213485D
:103710001946FEF7B3F92448FEF740F9234B00227F
:103720001A70234B00221A70224B00221A70203785
:10373000BD4680BD440F002000D70008800C00204B
:10374000400900200CD7000820D700082CD700081B
:1037500044D7000850D7000824270020F82700206D
:10376000300F002016090020100900201409002045
:10377000150900201C090020200900202C09002028
:10378000240900202D090020180900202E090020FE
:1037900028090020300900203809002034090020C1
:1037A000360900200C090020C8D10008BC2B0020DD
:1037B0008C200020F427002080B400AF0D4B1B7834
:1037C000312B03D80C4B4FF400621A61094B1B7864
:1037D000322B03D9084B4FF400625A61054B1B781A
:1037E000642B02D9034B00221A70BD465DF8047B9E
:1037F000704700BF7C0900200008014090B583B0ED
:1038000000AF0023FB800023BB800023FB701C4B18
:103810001B78002B31D01A4B1B78C72B03D8184BC1
:103820001B78BB8001E0C823BB800023FB8018E02D
:10383000FC88FEF78BFA03461A46124B1A55FB8892
:1038400001331A46104B1A60FB880E4AD35C3B2B9F
:1038500004D10123FB70BB88FB8006E0FB880133A9
:10386000FB80FA88BB889A42E2D3074B1B68054A63
:103870000021D1540348FEF7D7FD0C37BD4690BD5B
:10388000F42700204C0D00200809002080B500AF6F
:10389000404B1B68322B08D13E4B00221A603E4B36
:1038A0001B785B00DAB23C4B1A703B4B1B7803F081
:1038B0000103002B03D0394B04225A6102E0374B3D
:1038C00004221A61344B1B7803F00203002B03D04F
:1038D000324B08225A6102E0304B08221A612E4B0B
:1038E0001B7803F00403002B03D02C4B10225A61E9
:1038F00002E02A4B10221A61274B1B7803F00803C1
:10390000002B03D0254B20225A6102E0234B2022BA
:103910001A61214B1B7803F01003002B03D01F4BBF
:1039200040225A6102E01D4B40221A611A4B1B785B
:1039300003F02003002B04D0194B4FF400525A61BE
:1039400003E0174B4FF400521A61134B1B7803F03E
:103950004003002B03D0134B02225A6102E0114BAB
:1039600002221A610C4B1B78DBB25BB2002B03DA2C
:103970000C4B01225A6102E00A4B01221A61064BEC
:103980001B78002B02D1044B01221A70FFF714FFA1
:1039900080BD00BF68090020AB090020001801406D
:1039A000001001400014014080B584B000AF034610
:1039B000FB710023FB6005E06248FDF7EFFFFB6849
:1039C0000133FB60FB68132BF6DD0023FB6005E091
:1039D0005D48FDF7E3FFFB680133FB60FB68132BD9
:1039E000F6DD5848FDF7DAFF5848FDF7D7FF554890
:1039F000FDF7D4FF5648FDF7D1FF5648FDF7CEFF3F
:103A00005548FDF7CBFF5548FDF7C8FF5448FDF773
:103A1000C5FF5448FDF7C2FF5348FDF7BFFF5348A9
:103A2000FDF7BCFF5248FDF7B9FF5248FDF7B6FF5E
:103A30005148FDF7B3FF5148FDF7B0FF5048FDF77F
:103A4000ADFF5048FDF7AAFF4F48FDF7A7FF4F48CD
:103A5000FDF7A4FF4E48FDF7A1FF4E48FDF79EFF7E
:103A60004D48FDF79BFF4D48FDF798FF4C48FDF78B
:103A700095FF4C48FDF792FF4B48FDF78FFF4B48F1
:103A8000FDF78CFF4A48FDF789FF4A48FDF786FF9E
:103A90004948FDF783FF4948FDF780FF4848FDF797
:103AA0007DFF4848FDF77AFF4748FDF777FF474815
:103AB000FDF774FF4648FDF771FF4648FDF76EFFBE
:103AC0004548FDF76BFF4548FDF768FF4448FDF7A3
:103AD00065FF4448FDF762FF4348FDF75FFF434839
:103AE000FDF75CFF4248FDF759FF4248FDF756FFDE
:103AF0004148FDF753FF4148FDF750FF4048FDF7AF
:103B00004DFF4048FDF74AFF3F48FDF747FF3F485C
:103B1000FDF744FF3E48FDF741FF0A48FDF73EFF31
:103B20000848FDF73BFF3B48FDF738FF0548FDF728
:103B300035FF0448FDF732FF0248FDF72FFF10372D
:103B4000BD4680BD54D2000858D700085CD7000895
:103B50008CD7000894D70008A0D70008C0D7000869
:103B6000D4D70008E8D70008FCD7000810D8000810
:103B700040D8000868D8000890D80008ACD80008E1
:103B8000E0D8000810D900084CD9000880D90008F6
:103B9000B8D90008E8D9000810DA00084CDA0008A3
:103BA00080DA0008B8DA0008E8DA000810DB00085C
:103BB0004CDB000880DB0008B8DB0008E8DB00080D
:103BC00010DC000838DC00087CDC0008BCDC0008E5
:103BD000FCDC000830DD000874DD0008B0DD000802
:103BE000DCDD000808DE000834DE000860DE0008C6
:103BF000A0DE000800DF000854DF000890DF0008A6
:103C0000C8DF000800E0000844E000088CE000087D
:103C1000D4E0000804E1000880B584B000AF0B4692
:103C20003A600246FA71BB71FB79DB08BB73BB7B60
:103C3000012B02D13B68DBB2FB72BB7B022B06D1AE
:103C40003B68DBB2BB723B681B0ADBB2FB72BB7B1F
:103C5000032B0AD13B68DBB27B723B681B0ADBB2E9
:103C6000BB723B681B0CDBB2FB72BB7B042B0ED11F
:103C70003B68DBB23B723B681B0ADBB27B723B6882
:103C80001B0CDBB2BB723B681B0EDBB2FB72154B2D
:103C90004FF480525A61BB7963F07F03DBB2184660
:103CA000FDF790FF0023FB730DE0FB7BC3F10303E3
:103CB00007F11002134413F8083C1846FDF782FF81
:103CC000FB7B0133FB73FB79DB08DBB2FA7B9A42A7
:103CD000EBD3044B4FF480521A610023184610377F
:103CE000BD4680BD000C014090B587B000AF0246D4
:103CF0000B46FA71BB710023FB73FB79DB08BB73C6
:103D0000BB79FB73264B4FF480525A61FB7B1846FC
:103D1000FDF758FF0023FB750DE0FC7D0020FDF74B
:103D200051FF03461A4607F11803234403F8102CE9
:103D3000FB7D0133FB75FB79DB08DBB2FA7D9A4230
:103D4000EBD3174B4FF480521A61BB7B012B01D18F
:103D50003B7A3B61BB7B022B04D13B7A1A027B7A14
:103D600013443B61BB7B032B07D13B7A1A047B7A5C
:103D70001B021A44BB7A13443B61BB7B042B0AD160
:103D80003B7A1A067B7A1B041A44BB7A1B021A443C
:103D9000FB7A13443B613B6918461C37BD4690BD16
:103DA000000C014080B586B000AF786000233B6115
:103DB000FDF7CCFD00237B610EE020201E21FFF7E4
:103DC00093FFF860FA680D4B9A4202D03B690133C9
:103DD0003B617B6901337B617A697B689A42ECD3F2
:103DE00007487968FEF748F80648FDF7D7FD06480A
:103DF0003969FEF741F81837BD4680BDEFBEEDDEEC
:103E00001CE1000828E1000834E1000880B586B014
:103E100000AF786000233B61FDF798FD00237B61D4
:103E200013E020202421124AFFF7F6FE2020232150
:103E3000FFF75AFFF860FA680D4B9A4202D03B69CF
:103E400001333B617B6901337B617A697B689A420C
:103E5000E7D308487968FEF70FF80748FDF79EFD9D
:103E600006483969FEF708F81837BD4680BD00BF1F
:103E7000EFBEEDDE1CE1000828E1000834E1000897
:103E800080B582B000AF0023FB7110203221FFF714
:103E90002BFF03464FF47A7202FB03F39B099AB29D
:103EA000A84B5A8010203321FFF71EFF03464FF422
:103EB0007A7202FB03F39B099AB2A24B1A8110207B
:103EC0003421FFF711FF03464FF47A7202FB03F32C
:103ED0009B099AB29B4BDA8110203521FFF704FF32
:103EE00003464FF47A7202FB03F39B099AB2954B97
:103EF0009A8210203621FFF7F7FE03464FF47A72BC
:103F000002FB03F39B099AB28E4B5A831020372190
:103F1000FFF7EAFE03464FF47A7202FB03F39B09B4
:103F20009AB2884B1A8410203821FFF7DDFE034631
:103F30004FF47A7202FB03F39B099AB2814BDA8445
:103F400010203921FFF7D0FE03464FF47A7202FBAE
:103F500003F39B099AB27B4B9A8510203A21FFF715
:103F6000C3FE03464FF47A7202FB03F39B099AB235
:103F7000744B5A8610203B21FFF7B6FE03464FF4E0
:103F80007A7202FB03F39B099AB26E4B1A871020D8
:103F90003C21FFF7A9FE03464FF47A7202FB03F3BC
:103FA0009B099AB2674BDA8720203D21FFF79CFEE0
:103FB0000246644B5A6420203E21FFF795FE0246DC
:103FC000604B1A6520203F21FFF78EFE02465D4BB5
:103FD000DA6520204021FFF787FE0246594B9A669A
:103FE00020204121FFF780FE0246564B5A672020D1
:103FF0004221FFF779FE03469A08524BC3F880200E
:1040000020204321FFF770FE03469A084D4BC3F86A
:104010008C2020204421FFF767FE03469A08494B75
:10402000C3F8982020204521FFF75EFE03469A083A
:10403000444BC3F8A42018204621FFF755FE024642
:10404000404BC3F8CC2008200121FFF74DFE03466A
:10405000FB71FB79DB09DAB23A4B1A70FB795B0929
:10406000DBB203F00103DAB2364B5A70354B5A8893
:10407000344BDB889A4203D9324B5A88314BDA8071
:10408000304B5A882F4B9B889A4203D22D4B5A882B
:104090002C4B9A802B4B1A892A4B9B899A4203D925
:1040A000284B1A89274B9A81264B1A89254B5B8905
:1040B0009A4203D2234B1A89224B5A81214BDA8927
:1040C000204B5B8A9A4203D91E4BDA891D4B5A82D8
:1040D0001C4BDA891B4B1B8A9A4203D2194BDA8993
:1040E000184B1A82174B9A8A164B1B8B9A4203D98C
:1040F000144B9A8A134B1A83124B9A8A114BDB8A00
:104100009A4203D20F4B9A8A0E4BDA820D4B5A8B8E
:104110000C4BDB8B9A4203D90A4B5A8B094BDA833F
:10412000084B5A8B074B9B8B9A4203D2054B5A8BF9
:10413000044B9A83034B1A8C024B9B8C9A4207D9EF
:1041400002E000BF6C0F0020914B1A8C904B9A84B8
:104150008F4B1A8C8E4B5B8C9A4203D28C4B1A8CF1
:104160008B4B5A848A4BDA8C894B5B8D9A4203D9EC
:10417000874BDA8C864B5A85854BDA8C844B1B8DAA
:104180009A4203D2824BDA8C814B1A85804B9A8DEE
:104190007F4B1B8E9A4203D97D4B9A8D7C4B1A869E
:1041A0007B4B9A8D7A4BDB8D9A4203D2784B9A8D5A
:1041B000774BDA85764B5A8E754BDB8E9A4203D954
:1041C000734B5A8E724BDA86714B5A8E704B9B8EA4
:1041D0009A4203D26E4B5A8E6D4B9A866C4B1A8F55
:1041E0006B4B9B8F9A4203D9694B1A8F684B9A8706
:1041F000674B1A8F664B5B8F9A4203D2644B1A8FC0
:10420000634B5A87624BDA8F614BB3F842309A4264
:1042100004D95F4BDA8F5E4BA3F842205C4BDA8FF8
:104220005B4BB3F840309A4204D2594BDA8F584B6B
:10423000A3F84020564B5A6C554BDB6C9A4203D97D
:10424000534B5A6C524BDA64514B5A6C504B9B6C2B
:104250009A4203D24E4B5A6C4D4B9A644C4B1A6D9A
:104260004B4B9B6D9A4203D9494B1A6D484B9A654B
:10427000474B1A6D464B5B6D9A4203D2444B1A6D05
:10428000434B5A65424BDA6D414B5B6E9A4203D900
:104290003F4BDA6D3E4B5A663D4BDA6D3C4B1B6E25
:1042A0009A4203D23A4BDA6D394B1A66384B9A6E02
:1042B000374B1B6F9A4203D9354B9A6E344B1A67B2
:1042C000334B9A6E324BDB6E9A4203D2304B9A6E6E
:1042D0002F4BDA662E4B5A6F2D4BDB6F9A4203D968
:1042E0002B4B5A6F2A4BDA67294B5A6F284B9B6F1F
:1042F0009A4203D2264B5A6F254B9A67244BD3F828
:104300008030002B1BD0224BD3F88020204BD3F8D9
:1043100088309A4205D91E4BD3F880201C4BC3F835
:1043200088201B4BD3F88020194BD3F884309A4255
:1043300005D2174BD3F88020154BC3F88420144BBB
:10434000D3F88C20124BD3F894309A4205D9104BF5
:10435000D3F88C200E4BC3F894200D4BD3F88C204F
:104360000B4BD3F890309A4205D2094BD3F88C20EE
:10437000074BC3F89020064BD3F89820044BD3F892
:10438000A0309A4209D9024BD3F8982002E000BF2E
:104390006C0F0020174BC3F8A020164BD3F89820C1
:1043A000144BD3F89C309A4205D2124BD3F8982084
:1043B000104BC3F89C200F4BD3F8A4200D4BD3F81F
:1043C000AC309A4205D90B4BD3F8A420094BC3F863
:1043D000AC20084BD3F8A420064BD3F8A8309A425F
:1043E00005D2044BD3F8A420024BC3F8A820083709
:1043F000BD4680BD6C0F002080B500AF7148FDF751
:10440000CDFA714B4FF400721A61704BD3F8CC3077
:1044100003F00103002B03D06D48FDF7BFFA02E063
:104420006C48FDF7BBFA694BD3F8CC3003F00203BC
:10443000002B03D06848FDF7B1FA02E06748FDF7AA
:10444000ADFA624BD3F8CC3003F00403002B03D059
:104450006348FDF7A3FA02E06248FDF79FFA5B4B61
:10446000D3F8CC3003F00803002B03D05E48FDF7EF
:1044700095FA02E05D48FDF791FA544BD3F8CC3041
:1044800003F01003002B03D05948FDF787FA02E030
:104490005848FDF783FA4D4BD3F8CC3003F0200396
:1044A000002B03D05448FDF779FA02E05348FDF79A
:1044B00075FA464BD3F8CC3003F04003002B03D001
:1044C0004F48FDF76BFA02E04E48FDF767FA3F4BA5
:1044D000D3F8CC3003F08003002B03D04A48FDF71B
:1044E0005DFA02E04948FDF759FA384BD3F8CC3071
:1044F00003F48073002B03D04548FDF74FFA02E028
:104500004448FDF74BFA314BD3F8CC3003F4007339
:10451000002B03D04048FDF741FA02E03F48FDF789
:104520003DFA2A4BD3F8CC3003F48063002B03D040
:104530003B48FDF733FA02E03A48FDF72FFA234BE8
:10454000D3F8CC3003F40063002B03D03648FDF7DA
:1045500025FA02E03548FDF721FA1C4BD3F8CC30A0
:1045600003F48053002B03D03148FDF717FA02E023
:104570003048FDF713FA154BD3F8CC3003F4005351
:10458000002B03D02C48FDF709FA02E02B48FDF779
:1045900005FA0E4BD3F8CC3003F48043002B03D044
:1045A0002748FDF7FBF902E02648FDF7F7F9074B2E
:1045B000D3F8CC3003F40043002B47D02248FDF75A
:1045C000EDF946E044E10008001401406C0F0020C2
:1045D0006CE100087CE100088CE100089CE1000827
:1045E000ACE10008BCE10008CCE10008DCE1000817
:1045F000ECE10008FCE100080CE2000818E2000809
:1046000024E2000830E200083CE2000848E200082A
:1046100054E2000860E200086CE2000878E200085A
:1046200084E2000890E200089CE20008A8E200088A
:10463000B4E20008C0E20008CCE20008D8E20008BA
:10464000E4E20008F0E20008FCE20008A548FDF7FB
:10465000A5F9A54BD3F8CC3003F48033002B02D05E
:10466000A248FDF79BF9A04BD3F8CC3003F40033FC
:10467000002B02D09E48FDF791F99B4BD3F8CC302C
:1046800003F48023002B02D09A48FDF787F9964B5C
:10469000D3F8CC3003F40023002B02D09648FDF76A
:1046A0007DF9914BD3F8CC3003F48013002B02D06A
:1046B0009248FDF773F99248FDF770F99148FDF7BC
:1046C0006DF9894BDB8890481946FDF7EFFB864B67
:1046D0009B888E481946FDF7CFFB834B9B898C48FE
:1046E0001946FDF7E3FB804B5B898A481946FDF7C5
:1046F000C3FB7D4B5B8A88481946FDF7D7FB7A4B95
:104700001B8A86481946FDF7B7FB774B1B8B8448FD
:104710001946FDF7CBFB744BDB8A82481946FDF73F
:10472000ABFB8148FDF73AF96F4BDB8B7F481946AD
:10473000FDF7BCFB6C4B9B8B7D481946FDF79CFB42
:10474000694B9B8C7B481946FDF7B0FB664B5B8C35
:1047500079481946FDF790FB634B5B8D7748194606
:10476000FDF7A4FB604B1B8D75481946FDF784FBD4
:104770006D48FDF713F95C4B1B8E72481946FDF727
:1047800095FB594BDB8D70481946FDF775FB564B71
:10479000DB8E6E481946FDF789FB534B9B8E6C48A8
:1047A0001946FDF769FB6048FDF7F8F84E4B9B8F03
:1047B00068481946FDF77AFB4B4B5B8F66481946F4
:1047C000FDF75AFB484BB3F8423064481946FDF7F1
:1047D0006DFB454BB3F8403061481946FDF74CFB83
:1047E0006048FDF7DBF8404BDB6C5F481946FDF78E
:1047F0005DFB3D4B9B6C5D481946FDF73DFB3A4B1D
:104800009B6D5B481946FDF751FB374B5B6D594873
:104810001946FDF731FB344B5B6E57481946FDF7DF
:1048200045FB314B1B6E55481946FDF725FB2E4BBA
:104830001B6F53481946FDF739FB2B4BDB6E514874
:104840001946FDF719FB284BDB6F4F481946FDF75A
:104850002DFB254B9B6F4D481946FDF70DFB41483D
:10486000FDF79CF84A48FDF799F81F4BD3F88830BC
:1048700048481946FDF71AFB1B4BD3F884304648CD
:104880001946FDF7F9FA184BD3F894304348194606
:10489000FDF70CFB144BD3F8903041481946FDF757
:1048A000EBFA114BD3F8A0303E481946FDF7FEFA5B
:1048B0000D4BD3F89C303C481946FDF7DDFA0A4B06
:1048C000D3F8AC3039481946FDF7F0FA064BD3F867
:1048D000A83037481946FDF7CFFA3648FDF75EF89D
:1048E0006AE000BF08E300086C0F002014E3000832
:1048F00030E3000858E3000880E30008A8E300085C
:10490000D0E30008F4E30008FCE3000808E4000832
:1049100014E4000820E400082CE4000838E400084F
:1049200044E4000850E40008C8D100085CE4000832
:1049300068E4000874E4000880E400088CE40008DF
:1049400098E40008A4E40008B0E40008BCE400080F
:10495000C8E40008D4E40008E0E40008ECE400083F
:10496000F8E4000804E5000828E5000838E5000838
:1049700048E5000858E5000868E5000878E5000803
:1049800088E5000898E50008A8E50008B8E50008F3
:10499000C8E50008D0E50008E0E50008F0E50008FB
:1049A00000E6000810E6000820E6000830E60008EF
:1049B00040E6000850E60008214BD3F8B830214803
:1049C0001946FDF773FA1E4BD3F8B4301E4819464A
:1049D000FDF752FA1A4BD3F8C4301C481946FDF7BC
:1049E00065FA174BD3F8C03019481946FDF744FA59
:1049F0001848FCF7D3FF124B1B7817481946FDF7F0
:104A000055FA0F4B5B7815481946FDF735FA1148F2
:104A1000FCF7C4FF0A4BB3F8C83011481946FDF73C
:104A20002BFA074BB3F8CA300E481946FDF724FAA3
:104A3000FDF786FA0C4B4FF400725A6180BD00BF3F
:104A40006C0F002068E6000874E6000884E60008A1
:104A500090E60008C8D10008A0E60008ACE600080F
:104A6000BCE60008C4E600080014014080B584B02C
:104A700000AF0346FB71994B00221A60984B01224C
:104A80001A60984B00221A600023FB73964B93F830
:104A90005130DB01DAB2FB7B1343DAB2924B93F86D
:104AA000523003F001039B01DBB21343DAB28E4BA9
:104AB00093F8533003F001035B01DBB21343DAB226
:104AC000894B93F8543003F001031B01DBB213430D
:104AD000DAB2854B93F8553003F00103DB00DBB20B
:104AE0001343DAB2804B93F8563003F001039B0076
:104AF000DBB21343DAB27C4B93F8573003F0010377
:104B00005B00DBB21343DAB2774B93F85830DBB279
:104B100003F00103DBB21343DBB2FB73FB7B082022
:104B200003211A46FFF778F8FB7B70481946FDF71A
:104B3000D3F9FB79012B40F0B4806B4B6C4ADA64FB
:104B40006C4B4FF480725A61674BDB68DB002020AE
:104B50000A211A46FFF760F8634B1B69DB0020202F
:104B60000B211A46FFF758F85F4B5B69DB002020EA
:104B70000C211A46FFF750F85B4B9B69DB002020A5
:104B80000D211A46FFF748F8574B9B8B10200E213A
:104B90001A46FFF741F8544B1B6ADB0020200F2117
:104BA0001A46FFF739F8504B5B6ADB0020201021D2
:104BB0001A46FFF731F84C4B9B6ADB00202011218D
:104BC0001A46FFF729F8484BDB6ADB002020122148
:104BD0001A46FFF721F8444B1B8E102013211A466A
:104BE000FFF71AF8404B5B6BDB00202014211A46BC
:104BF000FFF712F83C4B9B6BDB00202015211A4677
:104C0000FFF70AF8384BDB6BDB00202016211A4631
:104C1000FFF702F8344B1B6CDB00202017211A46EB
:104C2000FEF7FAFF304BB3F84430102018211A4633
:104C3000FEF7F2FF2C4B1B68DB0010201A211A46EE
:104C4000FEF7EAFF284B5B68DB0020201B211A4699
:104C5000FEF7E2FF244B9B68DB0020201C211A4654
:104C6000FEF7DAFF204B93F85030082019211A463E
:104C7000FEF7D2FF1C4B9B6CDB0020201D211A4647
:104C8000FEF7CAFF184BDB6C20201E211A46FEF7E8
:104C9000C3FF184B4FF480721A611748FCF77EFE71
:104CA00018E0FB79002B15D10F4B4FF6FF72DA6439
:104CB000104B4FF480725A610B4BDB6C20201E218D
:104CC0001A46FEF7A9FF0B4B4FF480721A610B488E
:104CD000FCF764FE1037BD4680BD00BF0C0A002003
:104CE000680C0020200F002094210020CCE6000852
:104CF000FFFF010000140140D0E60008E4E60008D0
:104D000080B500AF3448FCF749FE3448FCF746FE56
:104D1000334B93F8593033481946FDF7ADF8304B13
:104D200093F85A3030481946FDF7A6F82C4B93F803
:104D30005B302E481946FDF79FF8294B93F85B30FE
:104D40002B481946FDF798F8254B93F85D30294814
:104D50001946FDF791F8224B93F85E302648194624
:104D6000FDF78AF81E4B93F85F3024481946FDF78B
:104D700083F81B4B93F8603021481946FDF77CF807
:104D8000174B93F861301F481946FDF775F8144B1F
:104D900093F862301C481946FDF76EF8104B93F8F3
:104DA00063301A481946FDF767F80D4B93F86430E5
:104DB00017481946FDF760F8094B93F86530154818
:104DC0001946FDF759F8064B93F866301248194614
:104DD000FDF752F880BD00BF00E7000818E70008A3
:104DE000942100202CE7000840E7000854E7000861
:104DF00068E700087CE7000890E70008A4E70008DF
:104E0000B8E70008CCE70008E0E70008F4E700088E
:104E100008E800081CE8000830E8000880B500AF8A
:104E20006B4BDA6C4FF6FF739A423BD16948FCF743
:104E3000B5FD674B93F8513067481946FDF71CF8EC
:104E4000634B93F8523065481946FDF715F8604BEF
:104E500093F8533062481946FDF70EF85C4B93F80F
:104E6000543060481946FDF707F8594B93F8553010
:104E70005D481946FDF700F8554B93F856305B48EE
:104E80001946FCF7F9FF524B93F85730584819462A
:104E9000FCF7F2FF4E4B93F8583056481946FCF792
:104EA000EBFF93E04A4BDA6C4FF6FF739A4200F047
:104EB0008D805148FCF772FD454BDB684F48194621
:104EC000FCF7DAFF424B1B694D481946FCF7D4FF4B
:104ED0003F4B5B694B481946FCF7CEFF3C4B9B6947
:104EE00049481946FCF7C8FF394B93F85030012B5D
:104EF0001AD94648FCF752FD354B1B6A44481946FF
:104F0000FCF7BAFF324B5B6A42481946FCF7B4FF24
:104F10002F4B9B6A40481946FCF7AEFF2C4BDB6ACF
:104F20003E481946FCF7A8FF294B93F85030022B56
:104F30001AD93648FCF732FD254B5B6B38481946C9
:104F4000FCF79AFF224B9B6B36481946FCF794FFFF
:104F50001F4BDB6B34481946FCF78EFF1C4B1B6C58
:104F600032481946FCF788FF2848FCF717FD184B14
:104F70005B682F481946FCF77FFF154B9B682D484F
:104F80001946FCF779FF124B1B682B481946FCF7B2
:104F900073FF0F4B9B6C29481946FCF76DFF28489F
:104FA000FCF7FCFC20202021FEF79EFE0346DB08D8
:104FB00024481946FCF760FF20201F21FEF794FECD
:104FC0000346DB0820481946FCF756FF80BD00BFAA
:104FD0009421002044E8000860E800086CE800081C
:104FE00074E800087CE8000884E800088CE8000801
:104FF00094E800089CE80008A4E80008C4E8000859
:10500000CCE80008D4E80008DCE80008C8D10008B3
:10501000E4E80008ECE80008F4E80008FCE8000810
:1050200004E900080CE9000814E900081CE900087C
:1050300024E9000834E9000844E9000854E90008BC
:105040005CE900086CE9000878E9000880B500AF69
:1050500020202621FEF748FE0246224BC3F8B0204E
:1050600020202521FEF740FE02461E4BC3F8BC203F
:105070001C4BD3F8B0201B4BD3F8B8309A4205D95B
:10508000184BD3F8B020174BC3F8B820154BD3F802
:10509000B020144BD3F8B4309A4205D2114BD3F858
:1050A000B020104BC3F8B4200E4BD3F8BC200D4BEE
:1050B000D3F8C4309A4205D90A4BD3F8BC20094B27
:1050C000C3F8C420074BD3F8BC20064BD3F8C0303C
:1050D0009A4205D2034BD3F8BC20024BC3F8C02040
:1050E00080BD00BF6C0F002080B584B000AF0346C8
:1050F000FB800023FB81FB88DB0B9BB2DBB203F060
:105100000103DAB2774B83F85920FB889B0B9BB2E3
:10511000DBB203F00103DAB2724B83F85B20FB8849
:105120005B0B9BB2DBB203F00103DAB26D4B83F889
:105130005C20FB881B0B9BB2DBB203F00103DAB2ED
:10514000684B83F85A20FB88DB0A9BB2DBB203F082
:105150000103DAB2634B83F85D20FB889B0A9BB2A4
:10516000DBB203F00103DAB25E4B83F85E20FB880A
:105170005B0A9BB2DBB203F00103DAB2594B83F84E
:105180005F20FB881B0A9BB2DBB203F00103DAB29B
:10519000544B83F86020FB88DB099BB2DBB203F041
:1051A0000103DAB24F4B83F86120FB889B099BB265
:1051B000DBB203F00103DAB24A4B83F86220FB88CA
:1051C0005B099BB2DBB203F00103DAB2454B83F813
:1051D0006320FB881B099BB2DBB203F00103DAB248
:1051E000404B83F86420FB885B089BB2DBB203F082
:1051F0000103DAB23B4B83F86520FB88DBB203F096
:105200000103DAB2374B83F86620364B93F85930F6
:10521000DB039AB2FB8913439AB2324B93F85A30AC
:105220001B039BB213439AB22E4B93F85B309B0344
:105230009BB213439AB22B4B93F85C305B039BB247
:1052400013439AB2274B93F85D30DB029BB21343B2
:105250009AB2244B93F85E309B029BB213439AB2EE
:10526000204B93F85F305B029BB213439AB21D4B05
:1052700093F860301B029BB213439AB2194B93F818
:105280006130DB019BB213439AB2164B93F8623044
:105290009B019BB213439AB2124B93F863305B01AC
:1052A0009BB213439AB20F4B93F864301B019BB22D
:1052B00013439AB20B4B93F865305B009BB21343D8
:1052C0009AB2084B93F8663013439BB2FB81FB887C
:1052D000102002211A46FEF79FFCFFF711FD103740
:1052E000BD4680BD9421002080B582B000AF3A4811
:1052F0008021FBF7C5FD034603F00103DBB23B70E1
:1053000035484FF48071FBF7BBFD034603F0010302
:10531000DBB27B7030484FF40071FBF7B1FD034600
:1053200003F00103DBB2BB702C484FF48071FBF734
:10533000A7FD034603F00103DBB2FB7027484FF4DF
:105340000061FBF79DFD034603F00103DBB23B71F7
:1053500022484FF48051FBF793FD034603F001030D
:10536000DBB27B711E482021FBF78AFD034603F068
:105370000103DBB2BB7118484021FBF781FD0346F6
:1053800003F00103DBB2FB71FB79DB01DAB2BB791D
:105390009B01DBB21344DAB27B795B01DBB21344CD
:1053A000DAB23B791B01DBB21344DAB2FB78DB00E3
:1053B000DBB21344DAB2BB789B00DBB21344DAB23F
:1053C0007B785B00DBB21344DAB23B781344DBB288
:1053D00018460837BD4680BD001001400008014056
:1053E000000C0140B0B5ADF5C15D86B000AF02461E
:1053F00007F11803113B1A70002307F5C15000F1A3
:1054000014000360A14B07F5C15101F10C010B60C1
:10541000002307F5C15202F10B021370002307F5B8
:10542000C15000F112000380994B07F5C15101F101
:1054300004010B60002307F5C15202F1140213604E
:1054400016E007F5805202F1100207F5C15000F195
:1054500014000368134400221A7007F5C15101F1CA
:1054600014010B68013307F5C15202F114021360F5
:1054700007F5C15303F114031A6840F602039A4278
:10548000DFDD07F5805303F1100323221A7007F5BF
:10549000805303F110030A225A7007F5805303F179
:1054A00010033A229A70032307F5C15000F112004D
:1054B000038007F11803113B1B78732B40F0D98050
:1054C000002307F5C15101F114010B60C8E003F09E
:1054D00063FB02466F4B83FB02039911D317CB1A70
:1054E0004FF47A7101FB03F3D31A184603F0C6F8A0
:1054F000034607F5C1510B6007F5C15202F10402E2
:1055000013681846194603F005F80346184607F5D0
:10551000C15303F10C03196803F004F903461C4658
:1055200007F5C15101F11401086803F0A7F803461B
:105530002046194603F0F6F8034607F5C05202F17B
:105540001C02136007F5C05303F11C03186802F036
:1055500075FC02460B461046194601F0C7F9024693
:105560000B46104619464FF000024B4B02F0BAFCB6
:1055700002460B4614461D4607F5C151086802F065
:105580005DFC02460B462046294602F0F9FA024627
:105590000B461046194602F067FF034607F5C05256
:1055A00002F11802136007F5C05303F118031868DD
:1055B00003F07EFA034607F5C05000F116000380A1
:1055C00007F5C05101F11601B1F900301B129BB271
:1055D00007F5C05202F11502137007F5C05000F133
:1055E0001600038807F5C05101F114010B7007F58F
:1055F000C15202F1120213881A46013207F5C15056
:1056000000F1120002801BB207F5805202F1100275
:1056100007F5C05000F115000178D15407F5C151CC
:1056200001F112010B881A46013207F5C15000F151
:10563000120002801BB207F5805202F1100207F53A
:10564000C05000F114000178D15407F5C15101F1A7
:1056500014010B68013307F5C15202F11402136003
:1056600007F5C15000F114000368B3F5806FFFF631
:105670002EAF07F11803113B1B78722B64D1002366
:1056800007F5C15101F114010B6055E0CDCCCC3DC3
:10569000DB0F4940D34D62100040DF4007F5C15297
:1056A00002F1140213681B1207F5C05000F1150037
:1056B000037007F5C15101F114010B6807F5C052E1
:1056C00002F11402137007F5C15000F112000388B3
:1056D0001A46013207F5C15101F112010A801BB2CD
:1056E00007F5805202F1100207F5C05000F11500D5
:1056F0000178D15407F5C15101F112010B881A4606
:10570000013207F5C15000F1120002801BB207F50B
:10571000805202F1100207F5C05000F11400017828
:10572000D15407F5C15101F114010B68013307F59C
:10573000C15202F11402136007F5C15000F11400C8
:105740000368B3F5806FA9DB07F5805303F11003FD
:10575000002283F8022807F5805303F1100318464E
:1057600040F60301FCF75EF907F5C1571837BD464F
:10577000B0BD00BF80B582B000AFFBF7ADFCFBF75A
:1057800087FEFBF7C9FFFCF791F8FBF727FFFBF754
:1057900021FDFCF7B5F9A04B10221A619F4B4FF485
:1057A00080625A619E48FCF7F9F89E48FCF7F6F8CB
:1057B0009B48FCF7F3F89C48FCF7F0F89948FCF795
:1057C000EDF89748FCF7EAF80020FEF7EDF8FCF753
:1057D000B7FB964B00221A60954B00221A60954B3E
:1057E0007822DA60934B44F6DB321A61914B7022D7
:1057F0005A61904B44F6DC329A618E4B01229A83B7
:105800008C4B78221A628B4B4FF4FA625A62894BA6
:1058100070229A62874B4FF4FA62DA62854B00225B
:105820001A86844B78225A63824B40F6B8329A63C8
:10583000804B7022DA637F4B40F6B8321A647D4B9E
:105840000022A3F844207B4B38221A60794B4FF496
:1058500098725A60774B4FF400729A60754B012230
:1058600083F85020734B744A9A64724B734ADA641B
:10587000704B012283F859206E4B012283F85A2085
:105880006C4B012283F85B206A4B012283F85C2079
:10589000684B012283F85D20664B012283F85E206D
:1058A000644B012283F85F20624B012283F8602061
:1058B000604B012283F861205E4B012283F8622055
:1058C0005C4B012283F863205A4B012283F8642049
:1058D000584B012283F86520564B012283F866203D
:1058E000544B012283F86720554B4FF400421A6154
:1058F000534B4FF400521A61524B00221A70524B14
:1059000000221A700120FCF7BBFB444B4FF480626D
:105910001A614E48FCF788FD00237B60434B1B68EF
:10592000002B05D1434B93F867301846FFF79EF8DC
:10593000444B1B78012B06D1424B00221A70FEF714
:105940009FFAFFF783FB404B1B78012B0AD13E4B9C
:1059500000221A700E20FBF7BFFE03469AB23C4BA2
:10596000A3F8C8203B4B1B78012B0AD1394B0022EE
:105970001A700F20FBF7B0FE03469AB2344BA3F81F
:10598000CA20FFF7B1FC03461A46334B1A70334B5B
:105990001A78314B1B789A421BD02F4B1A782F4B19
:1059A0001A702E4B1B78402B07D17B68012B02D13C
:1059B00000237B6001E001237B60284B1B78802B58
:1059C00007D17B68022B02D100237B6001E0022318
:1059D0007B60234B1B88002B08D17B68012B05D1F2
:1059E0007320FFF7FFFC1E4B05221A801C4B1B88FF
:1059F000002B08D17B68022B05D17220FFF7F2FC47
:105A0000174B05221A80FDF7F9FEFBF79FFFFDF704
:105A10003DFFFDF7D1FE81E7000801400014014081
:105A2000C8D1000884E900088CE90008680C00204F
:105A3000140A00209421002000093D00FFFF01000E
:105A4000000C01407C0C0020090A002098E90008A5
:105A50006C0F0020ED090020E5090020740C0020E7
:105A6000A809002080B485B000AF78600023FB60F7
:105A7000094B5B68FB60FB6823F44043FB60FA68FA
:105A80007B681343FB60044BFA685A601437BD46C9
:105A90005DF8047B704700BF0010024080B487B0FF
:105AA00000AF786000237B6100233B610023FB6033
:105AB0000023BB604D4B5B6803F00C037B617B698B
:105AC000042B07D0082B09D0002B34D17B68484A1F
:105AD0001A6034E07B68464A1A6030E0434B5B68EA
